:020000040800F2
:1000000000000220C12D0008992900089B29000842
:100010009D2900089F290008A12900080000000070
:10002000000000000000000000000000A3290008FC
:10003000A529000800000000A7290008A929000838
:10004000112E0008112E0008112E0008112E000894
:10005000112E0008112E0008112E0008112E000884
:10006000112E0008112E0008112E0008112E000874
:10007000112E0008112E0008112E0008112E000864
:10008000112E0008112E0008112E0008112E000854
:10009000112E0008112E0008112E0008112E000844
:1000A000112E0008112E0008112E0008112E000834
:1000B000112E0008112E0008112E0008112E000824
:1000C000112E0008112E0008112E0008112E000814
:1000D000112E0008112E0008112E0008112E000804
:1000E000112E0008112E0008112E0008112E0008F4
:1000F000112E0008112E0008112E0008112E0008E4
:10010000112E0008112E0008112E0008112E0008D3
:10011000112E0008112E0008112E0008112E0008C3
:10012000112E0008112E0008112E0008112E0008B3
:10013000112E0008112E0008112E0008112E0008A3
:10014000112E0008112E0008112E0008B9290008F0
:10015000112E0008112E0008112E0008112E000883
:10016000112E0008112E0008112E0008112E000873
:10017000112E0008112E0008112E000800000000AA
:08018000112E0008112E0008E9
:1001880010B5054C237833B9044B13B10448AFF3C9
:1001980000800123237010BD6C01002000000000C6
:1001A8001430000808B5034B1BB103490348AFF3EB
:1001B800008008BD00000000700100201430000815
:1001C80053B94AB9002908BF00281CBF4FF0FF31B6
:1001D8004FF0FF3000F07AB9ADF1080C6DE904CEAC
:1001E80000F006F8DDF804E0DDE9022304B070470A
:1001F8002DE9F0478C460D460446089E002B51D148
:100208008A4217466DD9B2FA82FEBEF1000F0BD0B2
:10021800CEF1200C01FA0EF520FA0CFC02FA0EF7CA
:100228004CEA050C00FA0EF44FEA174A250CBCFB01
:10023800FAF81FFA87F90AFB18CC45EA0C4508FBBF
:1002480009F3AB420AD9ED1908F1FF3280F0238196
:10025800AB4240F22081A8F102083D44ED1AA4B255
:10026800B5FBFAF00AFB105544EA054400FB09F90E
:10027800A14509D9E41900F1FF3380F00A81A145AD
:1002880040F2078102383C44A4EB090440EA0840E4
:100298000021002E61D024FA0EF40023346073602C
:1002A800BDE8F0878B4207D9002E54D0002186E89C
:1002B80021000846BDE8F087B3FA83F1002940F031
:1002C8008E80AB4202D3824200F2FA80841A65EB38
:1002D80003050120AC46002E3FD086E81010BDE88B
:1002E800F08712B90127B7FBF2F7B7FA87FEBEF11C
:1002F800000F34D1EB1B3A0C1FFA87FC0121B3FB2A
:10030800F2F8250C02FB183345EA03450CFB08F309
:10031800AB4207D9ED1908F1FF3002D2AB4200F227
:10032800D1808046ED1AA3B2B5FBF2F002FB10555E
:1003380043EA05440CFB00FCA44507D9E41900F185
:10034800FF3302D2A44500F2B8801846A4EB0C048F
:1003580040EA08409DE731463046BDE8F087CEF1D7
:10036800200405FA0EF307FA0EF720FA04F83A0CFF
:1003780025FA04F448EA0308B4FBF2F14FEA1845F9
:1003880002FB11441FFA87FC45EA044501FB0CF304
:10039800AB4200FA0EF409D9ED1901F1FF3080F0F3
:1003A8008A80AB4240F2878002393D44EB1A1FFA3B
:1003B80088F5B3FBF2F002FB103345EA034500FB76
:1003C8000CF3AB4207D9ED1900F1FF386FD2AB42FD
:1003D8006DD902383D44EB1A40EA01418FE7C1F17B
:1003E800200722FA07F88B4005FA01F448EA0303CC
:1003F80020FA07FE4FEA134CFD404EEA040EB5FB07
:10040800FCF94FEA1E440CFB19551FFA83F844EA1D
:10041800054509FB08F4AC4202FA01F200FA01FAB8
:1004280008D9ED1809F1FF3043D2AC4241D9A9F1FE
:1004380002091D442D1B1FFA8EFEB5FBFCF00CFBB8
:1004480010554EEA054400FB08F8A04507D9E41802
:1004580000F1FF3529D2A04527D902381C4440EACB
:100468000940A4EB0804A0FB02894C45C6464D464A
:1004780015D312D056B1BAEB0E0364EB050404FA97
:1004880007F7CB401F43CC40376074600021BDE8BC
:10049800F0871846F8E69046E0E6C245EAD2B8EB9F
:1004A800020E69EB03050138E4E72846D7E7404622
:1004B80091E78146BEE7014678E702383C4445E7C4
:1004C800084608E7A8F102083D442BE7704700BF3B
:1004D80038B50E4A0E4B054618784FF47A73B3FBBD
:1004E800F0F31068B0FBF3F000F0A8F8044658B930
:1004F8000F2D09D8024629464FF0FF3000F05EF86C
:10050800044B20461D6038BD012038BD9C000020EA
:10051800000000200400002008B50B4B1A6842F4C4
:1005280000721A601A6842F480621A601A6842F40B
:1005380080721A60032000F02FF80020FFF7C8FF30
:1005480002F0DEF9002008BD003C0240034A044BDB
:1005580011681B780B441360704700BF9801002096
:1005680000000020014B1868704700BF9801002068
:1005780038B50446FFF7F6FF631C1CBF054B1B7814
:10058800054618BFE418FFF7EDFF401B8442FAD870
:1005980038BD00BF00000020074AD36823F4E06399
:1005A8001B041B0C43F0BF63000243F4003300F448
:1005B800E0600343D360704700ED00E0174B30B5AF
:1005C800DC68C4F30224C4F10703251D042B28BFEB
:1005D8000423062D4FF0010505FA03F303F1FF3359
:1005E8008CBF033C00241940A14005FA04F4013CE7
:1005F8002240002842EA01024FEA0212AFBF00F18E
:10060800604000F00F00064BD2B2A5BF00F5614074
:10061800D2B21A5480F8002330BD00BF00ED00E0CC
:1006280014ED00E04209012300F01F0003FA00F076
:10063800014B43F82200704700E100E00138B0F1B7
:10064800807F0AD2064B074A5860F02182F82310AF
:100658000020072298601A6070470120704700BF89
:1006680010E000E000ED00E0044B1A6804280CBF1D
:1006780042F0040222F004021A60704710E000E021
:10068800704708B5FFF7FCFF08BD00002DE9F04FE3
:1006980085B00B68DFF8AC81684ADFF8AC9101934C
:1006A80000234FF0010E019C0EFA03FE0EEA040629
:1006B800B64540F0AE804C6824F01007022F16D1E2
:1006C8004FEAD30A00EB8A0A03F0070BDAF8205046
:1006D8004FEA8B0B4FF00F0C0CFA0BFC25EA0C0CB5
:1006E8000D6905FA0BF545EA0C05CAF820504FEAE2
:1006F800430A0325D0F800B005FA0AF5ED4304F0E3
:10070800030C0BEA050B0CFA0AFC013F4CEA0B0C34
:10071800012FC0F800C011D8876807EA050BCF6819
:1007280007FA0AFC4CEA0B078760476827EA0E0EAF
:10073800C4F300179F4047EA0E074760C7683D406B
:100748008F6807FA0AF73D43C560E50061D54FF0A9
:10075800000BCDF80CB0D8F84470394D47F48047F9
:10076800C8F84470D8F8447007F480470397039F8B
:1007780023F0030707F1804707F59C3703F0030CC4
:10078800D7F808A04FEA8C0C4FF00F0E0EFA0CFEAB
:10079800A8422AEA0E0E43D005F58065A84241D04A
:1007A80005F58065A8423FD005F58065A8423DD093
:1007B80005F58065A8423BD048453BD005F5006566
:1007C800A84239D005F58065A84214BF0825072539
:1007D80005FA0CF545EA0E05BD601568F74314F4F3
:1007E800803F0CBF3D4035431560556814F4003F09
:1007F8000CBF3D4035435560956814F4801F0CBF0D
:100808003D4035439560D568A40254BF3D4035430B
:10081800D5600133102B7FF444AF05B0BDE8F08FED
:100828005D46D5E70125D3E70225D1E70325CFE7C4
:100838000425CDE70525CBE70625C9E7003C01409F
:1008480000000240003802400014024003691942C7
:1008580014BF0120002070470AB181617047090464
:10086800FBE7F0B506468BB0002864D00323344676
:1008780080F8B93302F0E4F854F8100B00F0CCFE1D
:100888000FCC6D460FC50FCC0FC594E8030085E863
:100898000300371D97E80E00306800F07DFE002148
:1008A800306800F0BFFE00213346324606F11004DE
:1008B8000125084682F83810D18701310F2982F8BE
:1008C800395082F83B0010645064D06402F11C0275
:1008D800F0D10022D6F800E0114602F1400083F87A
:1008E800F821DA870EEB800001320F2A83F8F9111C
:1008F80083F8FB11C3F80012C3F80412C3F80C12F2
:10090800416003F11C03E8D10FCC6D460FC50FCC35
:100918000FC594E8030085E80300704697E80E00C9
:1009280000F098FE012386F8B933306801F0B5F974
:1009380000200BB0F0BD0120FBE790F8B833012B85
:1009480010B504460CD0012380F8B833006801F0D4
:1009580098F9206800F05AFE002084F8B80310BD0A
:10096800022010BD2DE9F04FD0F8009087B0044662
:10097800484601F0CCF90290002840F02E8120680A
:1009880001F097F9002800F02881206801F091F91A
:10099800850748BF2268206842BF536903F00203F5
:1009A800536101F086F910F400250AD0206801F09F
:1009B80084F909F530660746A2460025002F40F065
:1009C8000F81206801F075F941030BD5206801F00B
:1009D8007CF92646039009F510680025039B002B37
:1009E80040F03F81206801F064F900280DDAD9F859
:1009F800043823F00103C9F80438204602F09EF8B1
:100A08002268536903F000435361206801F051F9EB
:100A180006050BD5D9F80838D80702D5204602F0C4
:100A280075F82268536903F400635361206801F084
:100A380040F9C10437D509F500667368206823F0CA
:100A480001037360102100F0A1FE616809F51063CD
:100A5800FF220298884240F092814FF0FF33B36141
:100A6800F36943F00113F361236B002B00F08F81CE
:100A7800D6F8843043F00B03C6F88430736C43F027
:100A88000B037364D9F80038217C206823F4FE63D3
:100A9800C9F8003804F56F7201F058F922685369F3
:100AA80003F480535361206801F003F982041DD5D3
:100AB800206801F030F92068C36823F47053C360DC
:100AC80000F08DFE002840F06B812268E0604FF452
:100AD80000736361D36843F41053D360204602F077
:100AE80004F82268536903F400535361206801F045
:100AF800E0F8C3062BD52268936923F010039361AD
:100B0800D9F82060C6F34343022B06F00F0840F0E3
:100B1800A88147F6F0731E4214D01C2707FB08472C
:100B2800C6F30A163246D7F80412484601F053F8BD
:100B3800D7F804323344C7F80432D7F810321E44C9
:100B4800C7F810622268936943F010039361206824
:100B580001F0AFF8070707D5204601F0C2FF226869
:100B6800536903F008035361206801F0A2F8C60234
:100B780008D5E9B2204601F0E9FF2268536903F479
:100B880080135361206801F094F8800208D5E9B217
:100B9800204601F0D7FF2268536903F4001353611C
:100BA800206801F086F8410007D5204601F0D2FF01
:100BB8002268536903F080435361206801F079F893
:100BC80042070AD523685D686B0702D5204601F005
:100BD800C5FF23685A6815435D6007B0BDE8F08F0C
:100BE800F80738D55FFA85FB5946206801F075F893
:100BF80010F0010F804621D0216901239942B3608A
:100C08000CD13169DAF80002C1F31201411ACAF8AD
:100C18001012DAF804120844CAF8040259462046A9
:100C280001F04EFF2169012908D13DB9D4F80C2201
:100C380022B904F56F72206801F088F818F0080FDF
:100C480004D0204601F036FF0823B36018F0100FD7
:100C58001CBF1023B36001357F0820360AF11C0A37
:100C6800ACE6039BDA0758D55FFA85FB594620683E
:100C780001F03DF8C307074620D5D9F834380121DB
:100C8800A94023EA0103C9F834380123C8F8083019
:100C98002369012B01BF736C326C9B18736459462E
:100CA800204601F016FF2169012907D135B9E36C07
:100CB80023B904F56F72206801F048F8380744BF7B
:100CC8000823C8F80830F90644BF1023C8F80830CC
:100CD8007A0644BF4023C8F80830BB0744BF022344
:100CE800C8F808303F0618D523680493F76C336DAD
:100CF800FF1A336C9F4228BF1F46049B03F51063FD
:100D080007F1030A03EB45134FEA9A0A0593059B7B
:100D18009B699BB2534508D82FB3039B5B080135E9
:100D280003931C3608F1200858E6326DF36C9342A1
:100D3800F2D9002BF0D0376C04989B1A9F4228BF39
:100D48001F46237C00935A46BBB2716C00F02FFFFC
:100D5800736C3B447364336D07F1030A3B444FEAF9
:100D68009A0A3365D3E7049B012203F5006BD3F895
:100D78003438AA4023EA0203CBF83430CDE702988E
:100D88009A600130C3F808220290203361E6736943
:100D980043F00B037361336943F00B03336171E66E
:100DA8000323E3604023636100F0F0FB344B354AD2
:100DB80003449342236804D8DA6842F47052DA6034
:100DC8008CE6314A314902448A4203D8DA6842F44F
:100DD8006052F4E7A0F574022D49A2F510528A4238
:100DE80003D8DA6842F45052E9E7A0F1837229493E
:100DF800A2F5E7428A4203D8DA6842F44052DEE7B5
:100E0800254A264902448A4203D8DA6842F4305215
:100E1800D5E7234A234902448A4203D8DA6842F4D0
:100E28002052CCE7204A214902448A4203D8DA6892
:100E380042F41052C3E7A0F1B7721D49A2F5585207
:100E48008A4203D8DA6842F40052B8E7194A1A49C4
:100E580002448A42DA6894BF42F4E05242F4C05233
:100E6800ADE7062B7FF46EAE082204F56F71484695
:100E78001C2700F0B0FE07FB0847C6F30A165CE61D
:100E8800405327FFFF340C00401E1BFF3F420F005A
:100E98007F4F12001FD6130060B6E5FE5FE3160011
:100EA80000D3CEFE3F771B00C05BB3FEBF9121008D
:100EB8001F753800E05459FEDF9C410090F8B833A4
:100EC800012B10B5044609D0012380F8B833006817
:100ED80000F0C7FE002084F8B80310BD022010BD42
:100EE80070B54EB2002E04464FF01C0501F07F008D
:100EF800B5BF05FB004105FB0141383101F5FC7127
:100F0800C0B2002EB8BFC880022BCB704FEAD6758E
:100F180004BF00230B7108704D7094F8B8338A60D1
:100F2800012B09D0012384F8B833206800F072FC43
:100F3800002084F8B80370BD022070BD4BB2002BAE
:100F480010B54FF01C02044601F07F00B5BF02FB4C
:100F5800004102FB0141383101F5FC71DB0F0870DB
:100F68004B7094F8B833012B09D0012384F8B833B7
:100F7800206800F08EFC002084F8B80310BD022021
:100F880010BD38B501F07F051C2404FB050104FBE6
:100F9800050401F5FC71C4F80C320023C4F80422DE
:100FA800C4F8103284F8F93184F8F85103690068FC
:100FB800012B08BFC4F80822DAB21DB900F08AFD77
:100FC800002038BD00F0C0FCFAE738B501F07F0515
:100FD8001C2404FB050104FB05043831E3640023E9
:100FE80023650123626484F8393084F83850036932
:100FF8000068012B08BFA264DAB21DB900F06AFDCF
:10100800002038BD00F0A0FCFAE738B54BB2002B41
:1010180001F07F054FF01C02B5BF02FB050102FB82
:101028000101383101F5FC710122DB0FEDB28A7044
:101038000D704B7090F8B833934204460FD080F887
:10104800B823006800F0D5FD2DB904F56F72217C36
:10105800206800F07BFE002084F8B80338BD022029
:1010680038BD38B54BB2002B05464FF01C0201F0D5
:101078007F00B5BF02FB005102FB0151383101F579
:10108800FC71DB0F00248C7008704B7095F8B83336
:10109800012B09D0012385F8B833286800F0C8FD72
:1010A80085F8B843204638BD022038BD006870B5C1
:1010B800436A21B943EA02438362002070BD846A0F
:1010C800002503EB14434E1EECB2B44205F10105B2
:1010D80006DB3F3100EB810043EA02434360ECE763
:1010E800403400EB8404646803EB1443ECE70368C2
:1010F80000205962704700002DE9F341044618B9F1
:10110800012002B0BDE8F0810368DD0710D4236830
:10111800980758D423681A0700F19A8023685B0758
:1011280000F1B880A269002A40F019810020E8E7A0
:10113800A64B9A6802F00C02042A07D09A6802F0BB
:101148000C02082A0AD15B68590207D59F4B1B6815
:101158009A03DCD56368002BD9D1D1E763689B4D2E
:10116800B3F5803F11D12B6843F480332B60FFF730
:10117800F9F9964D06462B689B03C8D4FFF7F2F998
:10118800801B6428F7D90320BBE7B3F5A02F04D14F
:101198002B6843F480232B60E5E72A6822F4803229
:1011A8002A602A6822F480222A60002BDFD1FFF708
:1011B800D9F906462B689F03A9D5FFF7D3F9801BF9
:1011C8006428F7D9DFE7814B9A6812F00C0F07D033
:1011D8009A6802F00C02082A11D15B685E020ED4EC
:1011E8007A4B1A68950702D5E268012A88D11A68ED
:1011F800216922F0F80242EAC1021A608AE7E2682D
:10120800734BB2B101221A60FFF7ACF96F4D064675
:101218002B68980707D52B68226923F0F80343EA5F
:10122800C2032B6076E7FFF79DF9801B0228EFD9F0
:10123800A9E71A60FFF796F9644D06462B689907E7
:101248007FF568AFFFF78EF9801B0228F6D99AE779
:101258006269604B7AB101221A60FFF783F95B4D2E
:1012680006466B6F9F073FF559AFFFF77BF9801B69
:101278000228F6D987E71A60FFF774F9534D064636
:101288006B6F98077FF54AAFFFF76CF9801B022850
:10129800F6D978E74D4B1A6C12F0805228D101929A
:1012A8001A6C42F080521A641B6C03F0805301934D
:1012B800019B0126484D2B68D9051BD5A368434DD2
:1012C800012B27D12B6F43F001032B67FFF74AF956
:1012D8003E4D074641F288382B6F9B0739D5002EC3
:1012E8003FF420AF394A136C23F08053136419E795
:1012F8000026DFE72B6843F480732B60FFF732F991
:1013080007462B68DA05D9D4FFF72CF9C01B022849
:10131800F7D938E7052B04D12B6F43F004032B676B
:10132800D0E72A6F22F001022A672A6F22F004020E
:101338002A67002BCAD1FFF715F941F2883807460A
:101348002B6F9807CBD5FFF70DF9C01B4045F7D990
:1013580019E7FFF707F9C01B4045BDD913E71B4D37
:10136800AB6803F00C03082B3FF4CAAE1B4E0023F6
:10137800022A336034D1FFF7F5F807462B68990144
:101388001ED4226AE3691343626A43EA8213E26A5B
:1013980043EA0263A26A0D4C5208013A43EA024347
:1013A8006B6001233360FFF7DDF8054623689A0177
:1013B8003FF5BCAEFFF7D6F8401B0228F6D9E2E6A7
:1013C800FFF7D0F8C01B0228D8D9DCE60038024065
:1013D80000004742800E47420070004060004742CC
:1013E800FFF7C0F804462B689B017FF59FAEFFF717
:1013F800B9F8001B0228F6D9C5E600BF134908B59D
:101408008B6803F00C03042B03D0082B03D010487F
:1014180008BD104808BD4A684B68496813F4800342
:1014280014BF0C480A48C1F3881118BF002302F002
:101438003F02A1FB0001FEF7C3FE044B5B68C3F348
:10144800014301335B00B0FBF3F008BD00380240F4
:101458000024F40000127A002DE9F0410D460446FC
:1014680010B90120BDE8F081444B1A6802F00F0260
:101478008A4228D321688F072DD4C80740D43F4B10
:101488001A6802F00F02954266D3226851076CD49D
:10149800130707D53A4A2169936823F4604343EA5E
:1014A800C1039360FFF7AAFF354B364A9B68C3F325
:1014B8000313D35CD840344B18600020FFF708F8BA
:1014C8000020BDE8F081CAB21A701B6803F00F0350
:1014D8009942C6D1CEE72A4B11F0040F1EBF9A6875
:1014E80042F4E0529A600E0742BF9A6842F46042A2
:1014F8009A609A68A06822F0F00202439A60BCE7FA
:1015080062681F4B012A1DD11B6813F4003FA8D045
:101518001B4EB36823F003031343B360FFF722F8AD
:1015280041F288380746B368626803F00C03B3EBEE
:10153800820FA4D0FFF716F8C01B4045F3D903204B
:10154800BDE8F081911E01291B6802D813F0007FC5
:10155800DDE713F0020FDAE7EAB21A701B6803F04E
:101568000F039D427FF47DAF8FE70549E0688B68E4
:1015780023F4E05303438B608AE700BF003C02403A
:1015880000380240463000089C000020014B1868D3
:10159800704700BF9C00002084B038B505AD85E8D1
:1015A8000E000A9B012B044626D1836B23F480335B
:1015B8008363C36823F4840323F04003C360C368D0
:1015C80023F44013C360119B012B02BFC36843F48B
:1015D8008013C36000F0DEFB089B012B07D1A368D2
:1015E80043F00603A360A36843F02003A360BDE8AB
:1015F8003840002004B07047C36843F04003C3601C
:1016080000F0C8FB4FF48033A363E5E7836843F039
:101618000103836000207047836823F0010383601F
:101628000020704708B5C368012923F0C043C36090
:1016380008D1C36843F00053C3603220FEF798FF17
:10164800002008BD0029F8D1C36843F08043C36077
:10165800F3E7000084B02DE9F041044607A880E8CC
:101668000E00119E0A9FA36B8846A6B943F4001387
:10167800A3630023C4F8003ED4F80038C4F8003847
:101688000C9B012B04F500655ED1099939B92046F8
:1016980000F09EF807E043F40023A363E9E7194646
:1016A800204600F095F81021204600F06FF82046FB
:1016B80000F07EF800234FF0FF322B6119466B6172
:1016C8004FF09040AA614FF0FF0EEB6104F51062F5
:1016D80043453BD1002104F5306208464FF0904E57
:1016E8004FF0FF0C8B423ED12B69012F23F48073FE
:1016F8002B6108D1234B2B632B6B43F4803343F0CE
:1017080003032B632B6B0023A3616FF0804363619A
:101718001FB9A36943F01003A361A2691A4B1343CD
:10172800A3610D9B1BB1A36943F00803A361012EBC
:1017380001BFA36943F0804343F00403A361BDE8FC
:10174800F041002004B070470321A0E7D2F800C0A0
:10175800BCF1000FB4BF1060116001331161C2F811
:1017680008E02032B4E7D2F80080B8F1000FB4BF27
:10177800C2F800E0106001311061C2F808C02032E0
:10178800B0E700BF0001800000383C80890141F0CB
:101798002001064A0161013A05D0036913F02003CC
:1017A800F9D1184670470320704700BF410D030068
:1017B8001023064A0361013A05D0036913F01003A8
:1017C800F9D1184670470320704700BF410D030048
:1017D800D0F800381943C0F800180020704700F509
:1017E8000062D0F8080810F0060012D0936803F0E1
:1017F8000603022B0CD0936803F00603062B07D0D0
:10180800936803F00603042B14BF002002207047DE
:101818000320704730B54B780C78D0F81C5800F589
:101828000062012B1BD1A3409BB22B4300F5106033
:10183800D36100EB44131A6812040ED48A68C8787E
:101848001D68C2F30A0242F0805242F4004242EAA2
:10185800804040EA845028431860002030BD4FF48F
:101868008033A34000F530602B4300EB4410D36174
:1018780003681B04F1D48B68C9780268C3F30A03B0
:1018880043F0805343F4004343EA81431343036026
:10189800E3E700F001B8000070B54B78012B0E4665
:1018A800054609784FF0200326D100F5106213FB96
:1018B80001231A6822F400421A604FF000621A608D
:1018C8004FF080421A601F4A013A01D1032070BDCF
:1018D8009C6814F08044F7D110212846FFF756FF82
:1018E8003178D5F81C2801238B409BB222EA0303E8
:1018F800C5F81C38204670BD00F5306213FB012383
:101908001A6822F400421A604FF000621A604FF021
:1019180080421A600B4A013AD8D0986810F010003B
:10192800F9D1D5F8043843F48063C5F80438D5F8FC
:101938001C384FF480328A4023EA0203C5F81C3869
:1019480070BD00BF410D0300F7B54B780C78012B33
:101958004B6977D1202600F5106516FB04542669DB
:10196800002B38D126F0FF5626F4C01626612669CA
:1019780046F4002626612669F60CF6042661012A3B
:1019880050D10C780E6905EB44146661CE78012EAF
:101998000FD1D0F808480F7814F4807F4FF0200456
:1019A80014FB075427680CBF47F0005747F08057CF
:1019B80027600F7805EB4715012E2C6844F0044486
:1019C8002C6005D100929BB23A46C96800F0EFF846
:1019D800002003B0F0BDF60CF604266126698F6876
:1019E80026F0FF5626F4C0162661DE19013EB6FB26
:1019F800F7F7374ED4F810E006EAC74646EA0E066F
:101A080026612769C3F312063E432661CE78012E6C
:101A18005AD1266926F0C0462661266946F0005646
:101A28002661ACE7CE78012EB3D0002BAED091F86A
:101A380000E0D0F83478012404FA0EF43C43C0F8EE
:101A48003448A3E700F5306505EB44142569ED0C2F
:101A5800ED042561256925F0FF5525F4C01525619C
:101A68008D68FBB92369C5F312051D4325612369F8
:101A780043F400232361012A04BFCB686361CB7858
:101A8800012B0AD1D0F8083813F4807F23680CBFE3
:101A980043F0005343F080532360236843F004432A
:101AA800236095E70A4E27692B44013BB3FBF5F306
:101AB80006EAC3463E4326619BB226695D43C5F3E9
:101AC800120535432561D6E7012AAED159E700BF93
:101AD8000000F81F4B78012B70B50B784D6943D186
:101AE800202400F5106614FB03631C69CDB924F0AB
:101AF800FF5424F4C0141C611C6944F400241C61C4
:101B08001C69E40CE4041C610D7806EB4513012AFA
:101B18001C6844F004441C601BD10A695A61002007
:101B280070BDE40CE4041C611C6924F0FF5424F427
:101B3800C0141C618C68A54288BF4C611C6944F4C0
:101B480000241C614C691D69C4F312042C431C61F8
:101B5800DAE74B69002BE2D0D0F834280123AB40F8
:101B68001343C0F83438DAE700F5306000EB43106F
:101B78000369DB0CDB040361036923F0FF5323F4DF
:101B8800C01303618B6805B14B61046944F40024F8
:101B980004610469C3F312032343012A036104BFE8
:101BA800CB684361036843F004430360B7E710B5AB
:101BB8009DF808404CB9033300F5805023F0030327
:101BC80000EB02320B44994201D1002010BD51F8BC
:101BD800040B1060F7E7033222F003020A4400F511
:101BE8008050914201D108467047036841F8043B90
:101BF800F7E74B780A78012B4FF020030BD100F55B
:101C0800106013FB02000368002B0BDB036823F052
:101C18008043036006E000F5306013FB02000368B0
:101C2800002BF3DA036843F40013036000207047C5
:101C38004B780A78012B0CBF00F5106000F5306076
:101C4800202313FB0200036823F400130360CB78FE
:101C5800023B012B9EBF036843F0805303600020C2
:101C68007047D0F8003823F4FE63C0F80038D0F885
:101C78000038090101F4FE611943C0F8001800207A
:101C8800704708B5D0F8043823F00203C0F80438C8
:101C98000320FEF76DFC002008BD08B5D0F8043815
:101CA80043F00203C0F804380320FEF761FC00206B
:101CB80008BD4269806910407047D0F8183800F5AF
:101CC8000060C0691840000C7047D0F8183800F55B
:101CD8000060C069184080B2704700F5306303EBBC
:101CE800411100F500608A6840691040704710B5DE
:101CF800D0F81048D0F8343800EB4110CB4000F54C
:101D08001060DB018068DBB22343184010BD4069D6
:101D180000F001007047D0F8003923F4FF6323F086
:101D28000703C0F8003900F500639A6802F006025C
:101D3800042A02BFD0F8002942F00302C0F80029A3
:101D48005A6842F480725A600020704710B5002427
:101D5800C0F8104BD0F8104B44F40024C0F8104BD6
:101D6800D0F8104B44F01804C0F8104BD0F8104BC2
:101D7800012900F5306344F0C04408BF4FF08023C8
:101D8800C0F8104B04BFC0F8142BC0F8003B00206B
:101D980010BD00000A4B013B01D1032070470269C6
:101DA800002AF8DA0369064A43F001030361013A9D
:101DB800F3D0036913F00103F9D11846704700BF47
:101DC800410D03002923038000487047400000208C
:101DD800D0F81832002083F85000704710B5D0F8BA
:101DE8001842E36C012B07D1D0F81C326178DB680C
:101DF800207898470023E364002010BD0A2303805D
:101E0800004870479000002038B5D0F81852D0F834
:101E18001C326978DB6804462878984740232A46AC
:101E28000121204600F04AFF002038BD38B50C7863
:101E3800D0F8183214F0600405462DD0202C0CD1AF
:101E48004A78023A092A21D8DFE802F0140920204A
:101E58002020201810058A781A6400241AE001222C
:101E680003F14001284600F085FBF6E74A88120A8C
:101E78005A64F2E7012203F14401F3E70122DA642C
:101E880028468A79194600F08AFBE6E7284600F0DA
:101E98004AFB0224204638BD4A780A2A1AD00B2A5F
:101EA8001ED0062AF6D14B881B0A222B07D1CA88D6
:101EB800D0F81C32212A28BF21221968D2E7212B09
:101EC80005D1CA880849212A28BF2122CAE7214604
:101ED8002246C7E7012203F1480100F04BFBD9E78E
:101EE8008A789A64D6E700BF6C00002010B581217B
:101EF800044600F089FE0121204600F085FED4F852
:101F0800183253B1D4F81C329B689847D4F8180299
:101F180000F0A8FF0023C4F81832002010BD70B5E7
:101F2800402305460322812100F05EFE4023032260
:101F38000121284600F058FE542000F08BFF064689
:101F4800C5F8180270B1D5F81C32002480F850404A
:101F58005B689847402332460121284600F0AEFED0
:101F6800204670BD012070BD10B5134690F8FC21C5
:101F7800032A0BD1D0F8184294F8502032B9012224
:101F880084F850200A46812100F08AFE002010BD06
:101F980019B1C0F81C12002070470220704708B51C
:101FA80080B1D0F8143213B10023C0F8143209B14B
:101FB800C0F81012012380F8FC31027000F0D2FD45
:101FC800002008BD022008BD19B1C0F81412002075
:101FD80070470220704708B500F0F8FD002008BDE2
:101FE80008B5D0F814320BB9022008BD1B68984711
:101FF8000028F9D108BD08B5D0F814325B689847B5
:10200800002008BD38B5044600F50275284600F0E2
:1020180076FA012394F80812C4F8F431B4F80E32B1
:10202800C4F8F83101F01F03012B0ED007D3022B9F
:1020380010D001F08001204600F0F4FD03E02946AD
:10204800204600F0E7F8002038BD2946204600F079
:10205800DBF9F8E72946204600F0EEF9F3E738B552
:102068000446154611BBD0F8F431032B0FD1D0F834
:102078000C31D0F8102193420BD99B1A9A4228BFF1
:102088001A46C0F80C3192B2294600F097FA00209F
:1020980038BDD0F814321B6923B190F8FC21032A0B
:1020A80000D19847204600F091FAF0E7D0F81432B2
:1020B8009B69002BEBD090F8FC21032AE7D19847C5
:1020C800E5E770B5134604460E4600293DD1D0F821
:1020D800F421022A0FD1C569026A954214D9AA1AB5
:1020E800C261194692B200F052FA33461A461946AE
:1020F800204600F0E3FD94F80032012B02D10023C2
:1021080084F80032002070BD8369B3FBF2F502FB4E
:10211800153565B99A420AD8D0F8F821934206D203
:102128002A4600F034FAC4F8F8512B46DEE7D4F812
:102138001432DB682BB194F8FC21032A01D1204624
:102148009847204600F04DFAD5E7D0F814325B697D
:10215800002BD7D090F8FC21032AD3D19847D1E798
:1021680038B50022044611464025402300F03CFDC6
:102178002B46C4F8105100228021204600F034FD7F
:10218800012384F8FC31D4F8183225622BB1D4F835
:10219800143221795B6820469847002038BD0174C5
:1021A8000020704790F8FC3180F8FD31042380F856
:1021B800FC310020704790F8FD3180F8FC31002098
:1021C800704708B590F8FC21032A04D1D0F81432DE
:1021D800DB6903B19847002008BD00207047002044
:1021E80070470020704708B5012280F8FC21D0F81C
:1021F8001422017952689047002008BD10B580214B
:10220800044600F00FFD20460021BDE8104000F014
:1022180009BD000037B54B7804460D46092B79D81F
:10222800DFE813F0C900E5007800D90078006D00F8
:102238000A007800B9008D004B881A0A013A062A6C
:1022480068D8DFE802F0041C296767495200D0F813
:1022580010321B68207C0DF106019847BDF8062056
:10226800002A67D0EB88002B64D09A4228BF1A4610
:10227800ADF806200146204600F07CF95AE0027CC1
:10228800D0F8143232B99B6A0DF106009847022340
:102298004370E3E7DB6AF7E7DBB2052B3AD8DFE800
:1022A80003F003070B0F1317D0F810325B68D1E760
:1022B800D0F810329B68CDE7D0F81032DB68C9E758
:1022C800D0F810321B69C5E7D0F810325B69C1E756
:1022D800D0F810329B69BDE7037CDBB9D0F8143223
:1022E8000DF106005B6B9847B8E7037C93B9D0F80B
:1022F80014320DF106001B6B98470723C8E78B883B
:1023080043B9CB8833B990F8FC318D78032B05F0AD
:102318007F0503D12046FFF771FF0BE080F8FE51DF
:10232800294600F0AFFC204600F050F92DB10223F9
:1023380084F8FC31002003B030BD0123F8E7897828
:10234800304D01292970E5D890F8FC31022B0CD0CA
:10235800032BDFD1B1B9022380F8FC314160FFF7CC
:102368004AFE204600F032F9E4E70029F9D00121BD
:102378000323416080F8FC312046FFF731FE022834
:10238800EFD1C7E741680129EBD0C9B2FFF733FEA7
:1023980029786160F0E7CA88012ABBD190F8FC313E
:1023A800022B03D0032BB5D1011D64E7014600239E
:1023B80041F8083F5FE790F8FC31023B012BA9D8B0
:1023C8000123C360D0F804320BB10323C360022297
:1023D80004F10C014FE74B88012BABD1C4F8043250
:1023E800D4F8143229469B6820469847B9E790F8F4
:1023F800FC31023B012B8DD84B88012B9AD100234D
:10240800ECE700BF8801002038B590F8FC31032BB9
:1024180004460D460DD10B79012B0AD8D0F8143299
:102428009B689847EB8813B9204600F0CFF8002046
:1024380038BDFFF7E3FEFAE770B50A788E8802F038
:102448006002202A04460D46F3B205D1D0F81432B2
:102458009B689847002070BD4A78012A1CD02AD36F
:10246800032AF7D190F8FC21022A40D0032A02D08F
:10247800FFF7C4FEEEE74A8822B95E0602D0194685
:1024880000F0D0FBD4F8143229469B6820469847C0
:10249800204600F09BF8DDE790F8FC21022A26D0C0
:1024A800032AE5D14A88002AD4D15906F0D0194622
:1024B80000F0C6FBE6E790F8FC21022A17D0032AB1
:1024C800D6D103F07F0516F0800F00EB05151946ED
:1024D80014BF143505F5827500F0C0FB68B10123FF
:1024E8002B6002222946204600F044F8B2E75A063B
:1024F800B0D0194600F096FBACE72860F1E70B78FE
:1025080003704B784370CA788B7803EB02234380BF
:102518004A790B7903EB02238380CA798B7903EB21
:102528000223C380704710B58021044600F07AFB6F
:1025380020460021BDE8104000F074BB30B588B1DA
:1025480005462B1A15F8014BDBB2002CF9D15B00BC
:10255800023313800B7003234B700138022310F8E9
:10256800015F05B930BD5A1CD2B2CD540233DBB27B
:102578008C54F4E710B513460222C0F8F4218361A5
:102588000A46C361002100F08BFB002010BD08B58E
:1025980013460A46002100F083FB002008BD10B551
:1025A80013460322C0F8F421C0F808310A46C0F8DF
:1025B8000C31002100F082FB002010BD08B5134645
:1025C8000A46002100F07AFB002008BD08B5042364
:1025D800C0F8F43100231A46194600F061FB0020C8
:1025E80008BD08B50523C0F8F43100231A4619467A
:1025F80000F064FB002008BD30B595B00024264BE0
:1026080001941A6C42F080521A641B6C03F08053D8
:102618000193019B214B02941A6842F480421A608C
:102628001B6803F480430293029B012308934FF431
:10263800803309934FF480030F93082310934FF4CA
:10264800A8730225119308A8072313930E951295D2
:10265800FEF752FD0D2303934FF4A0530521069373
:1026680003A84FF48053079304950594FEF7F4FEEE
:10267800FEF78CFF4FF47A73B0FBF3F0FDF7DEFF43
:102688000420FDF7F1FF224621464FF0FF30FDF709
:1026980095FF15B030BD00BF003802400070004003
:1026A80080B58CB00024FDF737FFFFF7A5FF874BF7
:1026B80001941A6B8648DFF8408242F010021A63D0
:1026C8001A6B02F010020192019A02941A6B42F0FE
:1026D80004021A631A6B02F004020292029A03942B
:1026E8001A6B42F080021A631A6B02F0800203929E
:1026F800039A04941A6B42F001021A631A6B02F0EF
:1027080001020492049A05941A6B42F002021A63B9
:102718001A6B02F002020592059A06941A6B42F0AF
:1027280008021A631B6B099403F0080301260825A5
:10273800069307A9069B07950A940896FDF7A6FF36
:1027480007A96448099405270A9407960896FDF78F
:102758009DFF079507A902255E48089509940A94E4
:102768000B97FDF793FF07A95B4809944FF0060AFA
:102778000796CDF82080FDF789FF102307A9564852
:102788000793089509940A94CDF82CA0FDF77EFFCD
:10279800E02307A950480793089509940A940B97D2
:1027A8004FF00409FDF772FF07A94C4808940994F3
:1027B800CDF81C90FDF76AFF4FF4806307A94748DE
:1027C8000793089509940A940B97FDF75FFF4FF25A
:1027D800100307A94248079309940A940896FDF73D
:1027E80055FF4FF4A45307A93A480793089509944D
:1027F8000A94CDF82CA0FDF749FF202307A93848F3
:10280800079308940994FDF741FF4FF41073079359
:1028180007A91223314808930A940996CDF82C90F9
:10282800FDF734FF07A92A4807950994CDF82080B9
:102838002C4F2B4CFDF72AFF00F0E6F83D46BB78FD
:10284800294E312B0CBF012200224FF48051204623
:10285800FEF702F8EB78312B0CBF012200224FF46F
:1028680000512046FDF7F8FF2B79312B0CBF0122D0
:1028780000224FF480412046FDF7EEFF6B79312BA3
:102888000CBF012200224FF400412046FDF7E4FF6F
:1028980001211148FDF7DAFF0128144B13D15870B4
:1028A800402213493068FFF75FFB4FF4FA70FDF7D9
:1028B8005FFE40220F493068FFF756FB4FF4FA706D
:1028C800FDF756FEBBE700225A70F2E700380240D7
:1028D80000100240000802400000024000040240CC
:1028E800000C02409C01002030080020DC01002080
:1028F8002C3000083C30000800001210704700001F
:1029080013B5224B002400945A6C42F480425A6456
:102918005A6C02F480420092009A01941A6C42F0B8
:1029280080521A641B6C03F0805301930720019BAB
:10293800FDF732FE224621466FF00B00FDF73EFE02
:10294800224621466FF00A00FDF738FE224621464E
:102958006FF00900FDF732FE224621466FF00400B1
:10296800FDF72CFE224621466FF00300FDF726FEF8
:10297800224621466FF00100FDF720FE224621463F
:102988004FF0FF30FDF71AFE02B010BD00380240CC
:102998007047FEE7FEE7FEE7FEE7704770477047BF
:1029A80008B5FDF7D3FDBDE80840FDF76ABE000095
:1029B8000148FDF7D7BF00BF400400200F49D1F8F8
:1029C800883043F47003C1F888300D4B1A68002032
:1029D80042F001021A6098601A6822F0847222F4A8
:1029E80080321A60074A5A601A6822F480221A60F4
:1029F800D8604FF000638B60704700BF00ED00E0C7
:102A0800003802401030002410B5094C0949002252
:102A18002046FFF7C4FA08492046FFF7D5FA2046B2
:102A28000649FFF7B5FA2046BDE81040FFF7D3BACC
:102A38001C020020D400002008000020C400002050
:102A480010B50368B3F1A04F86B02DD100244FF420
:102A5800007301A91548019302940394FDF716FE2B
:102A68004FF4E05301930223029301A90A230F486C
:102A7800059303940494FDF709FE0D4B5A6B42F03D
:102A880080025A6300945A6C42F480425A645B6C28
:102A980003F480430093432022462146009BFDF720
:102AA8008DFD4320FDF7BEFD06B010BD00000240BD
:102AB8000038024000F56F71D0F8EC03FFF7A2BAB6
:102AC8001C2303FB0103D0F8EC03D3F80422FFF71F
:102AD800C6BA1C2303FB0103D0F8EC035A6CFFF7BA
:102AE800F0BAD0F8EC03FFF76CBB10B5C168044628
:102AF800003118BF0121D0F8EC03FFF750FBD4F8E0
:102B0800EC03BDE81040FFF72BBB000010B50446EE
:102B1800D0F8EC03FFF746FB2268D2F8003E43F0FA
:102B28000103C2F8003E236A23B1034A136943F044
:102B38000603136110BD00BF00ED00E0D0F8EC0300
:102B4800FFF739BBD0F8EC03FFF749BBD0F8EC032B
:102B5800FFF743BBD0F8EC03FFF743BBD0F8EC0317
:102B6800FFF741BB08B5027852BB164B0421C3F8E6
:102B7800EC03C0F820324FF0A04083E803000221A4
:102B88001846D9601A615A619961DA611A625A6203
:102B9800DA621A63FDF765FE20B140F253110A4864
:102BA800FFF7ACFE80210748FEF7A1FA402200217A
:102BB8000448FEF77BFA802201210248FEF776FAE4
:102BC800002008BD400400205A30000808B5D0F89D
:102BD8002002FDF7B2FE03289ABF024B185C0220C0
:102BE80008BD00BF5630000810B51C46D0F82002BA
:102BF80013462246FEF774F903289ABF014B185C66
:102C0800022010BD5630000808B5D0F82002FEF7A3
:102C180095F903289ABF024B185C022008BD00BF33
:102C28005630000808B5D0F82002FEF7EEF9032860
:102C38009ABF024B185C022008BD00BF563000083E
:102C480008B5D0F82002FEF70CFA03289ABF024B09
:102C5800185C022008BD00BF5630000811F0800F34
:102C6800D0F820324FF01C021BBF01F07F0102FB9D
:102C7800013102FB013191F83A0008BF91F8FA01DD
:102C88007047000008B5D0F82002FEF717F90328AE
:102C98009ABF024B185C022008BD00BF56300008DE
:102CA80008B5D0F82002FEF790F903289ABF024B26
:102CB800185C022008BD00BF5630000808B5D0F8DF
:102CC8002002FEF75EF903289ABF024B185C022027
:102CD80008BD00BF56300008024B034A1A600020A6
:102CE800704700BF300800201C02002000207047F9
:102CF800064B074A1B68D3F818020023C15C995495
:102D08000133402BFAD10020704700BF3008002063
:102D18009C01002012230B8000487047F00000201F
:102D280004230B80004870470401002010B5044CB0
:102D380004480A462146FFF701FC204610BD00BFA3
:102D4800340800209430000810B5044C04480A46A2
:102D58002146FFF7F3FB204610BD00BF34080020D2
:102D6800A230000810B5044C04480A462146FFF773
:102D7800E5FB204610BD00BF34080020BF30000826
:102D880010B5044C04480A462146FFF7D7FB2046F5
:102D980010BD00BF340800206D30000810B5044C89
:102DA80004480A462146FFF7C9FB204610BD00BF6C
:102DB800340800207F300008DFF834D0002103E019
:102DC8000C4B5B58435004310B480C4B42189A4249
:102DD800F6D30B4A02E0002342F8043B094B9A421F
:102DE800F9D3FFF7EBFD00F011F8FFF759FC704736
:102DF80000000220DC300008000000206C010020E8
:102E08006C010020380A0020FEE7000070B50D4E66
:102E18000D4CA41BA4100025A54209D10B4E0C4C47
:102E280000F0F4F8A41BA4100025A54205D170BD3C
:102E380056F8253098470135EEE756F8253098477B
:102E48000135F2E7D4300008D4300008D430000847
:102E5800D8300008024B0146186800F059B800BF86
:102E680008010020024B0146186800F003B800BFB3
:102E78000801002038B50546002945D051F8043C22
:102E88000C1F002BB8BFE41800F0B0F81F4A1368F5
:102E9800104633B9636014602846BDE8384000F036
:102EA800A6B8A3420CD921686218934204BF1A68D5
:102EB8005B68636004BF521822600460ECE7134645
:102EC8005A680AB1A242FAD919685818A0420BD117
:102ED80020680144581882421960DDD11068526890
:102EE8005A6001441960D7E702D90C232B60D3E755
:102EF800206821188A4204BF11685268626004BFC2
:102F0800091821605C60C7E738BD00BF8C0100204C
:102F180070B5CD1C25F0030508350C2D38BF0C25E0
:102F2800002D064601DBA94203D90C23336000209B
:102F380070BD00F05BF8234A1468214691B9224C11
:102F480023681BB9304600F041F820602946304616
:102F580000F03CF8431C26D10C233360304600F0C7
:102F680046F8E4E70B685B1B1AD40B2B0FD90B60F0
:102F7800CD50CC18304600F03AF804F10B00231D70
:102F880020F00700C31A1BD05A42E25070BD8C4291
:102F98000DBF63684B686360136018BF0C46E9E7B0
:102FA8000C464968CAE7C41C24F00304A04205D0B3
:102FB800211A304600F00AF80130CDD02560D9E753
:102FC80070BD00BF8C0100209001002038B5064C70
:102FD800002305460846236000F00AF8431C02D186
:102FE800236803B12B6038BD340A0020704770474E
:102FF800044B1968024609B9034919601868024464
:103008001A60704794010020380A0020F8B500BF04
:10301800F8BC08BC9E467047F8B500BFF8BC08BCB1
:043028009E46704709
:10302C00427574746F6E20707265737365640A00F8
:10303C00416E6820746F616E0A0000000000000091
:10304C0000000102030406070809000201022E2EEB
:10305C005C5372635C757362645F636F6E662E6340
:10306C0000437573746F6D2048494420436F6E663E
:10307C00696700437573746F6D2048494420496E2D
:10308C0074657266616365005472616E2056616E80
:10309C0020546F616E0053544D333220437573745A
:1030AC006F6D2048756D616E20696E746572666116
:1030BC0063650030303030303030303030314100EA
:0830CC002CD1FF7F0100000080
:0430D400AD01000842
:0430D8008901000862
:1030DC000100000010000000271F0008F51E00086A
:1030EC00351E000800000000E51D0008D91D000871
:1030FC00111E00080000000000000000000000008D
:10310C00CD1D0008CD1D0008CD1D0008051E0008B2
:10311C0009022900010100C0320904000002030069
:10312C000000092111010001222100070581034043
:10313C0000200705010340002000000009211101B7
:10314C00000122210000000000000000000000002F
:10315C000000000000000000000000000000000063
:10316C000A06000200000040010000000024F400E8
:10317C000600FF0901A10119012940150026FF00D5
:10318C0075089540810219012940750895409102F6
:10319C00C0000000A0000020E12C0008F52C000865
:1031AC00F92C00081D2D0008292D0008352D0008CC
:1031BC00512D00086D2D0008892D0008A52D000843
:1031CC00120100020000004083045057000201026B
:1031DC0003010000040309040C010020000000009E
:1031EC0000000000000000000000000000000000D3
:1031FC0000000000000000000000000000000000C3
:10320C0000000000000000000000000000000000B2
:10321C0000000000000000000000000000000000A2
:10322C000000000000000000000000000000000092
:0C323C0000000000000000000000000086
:0400000508002DC101
:00000001FF
